:100000000C942A000C943F000C943F000C943F0089
:100010000C943F000C943F000C943F000C943F0064
:100020000C943F000C943F000C943F000C943F0054
:100030000C943F000C943F000C943F000C943F0044
:100040000C943F000C943F000C943F000C943F0034
:100050000C943F0011241FBECFE5D8E0DEBFCDBF1A
:1000600010E0A0E6B0E0E2EDF5E002C005900D92F0
:10007000AE3EB107D9F70E94F2010C94E7020C944E
:10008000000045B390E09C0135952795359527955F
:100090002C734370242B25BBA898A99A22E02A959B
:1000A000F1F700C0A998EFE8F1E03197F1F700C04F
:1000B000000025B3880F991F880F991F8C73237038
:1000C000822B85BBA99AF2E0FA95F1F700C0A998B6
:1000D0008FE99FE00197F1F700C00000089545B354
:1000E00090E09C0135952795359527952C734370A5
:1000F000242B25BBA89AA99A22E02A95F1F700C0E3
:10010000A998EFE8F1E03197F1F700C0000025B3BE
:10011000880F991F880F991F8C732370822B85BBC2
:10012000A99AF2E0FA95F1F700C0A9988FE99FE04B
:100130000197F1F700C0000008958FE39CE9019753
:10014000F1F700C0000085B38370886085BBA89874
:10015000A99A92E09A95F1F700C0A9988FE097E2EA
:100160000197F1F700C0000088E20E9441008CE096
:100170000E94410086E00E94410081E00E9441000F
:100180008FE99FE00197F1F700C000000895811109
:1001900004C080E8860F0C94410080ECFBCFCF9325
:1001A000DF93EC018991811103C0DF91CF91089514
:1001B0000E946F00F7CFEF92FF920F931F93CF93A0
:1001C000DF9300D000D000D01F92CDB7DEB78C01F6
:1001D00097FF07C08DE20E946F0088279927801B38
:1001E000910B9E012F5F3F4F79010097B1F480E39F
:1001F000898301E00E0D1F2D111DE016F106F9F4A3
:1002000027960FB6F894DEBF0FBECDBFDF91CF911A
:100210001F910F91FF90EF900895E0E02AE030E009
:1002200001E00E0FEE0DFF2DF11DB9010E94D3026A
:10023000805D8083CB01E02F009791F7DBCFF80141
:1002400082918F010E946F00D8CF30E020E0281704
:10025000390709F40895C29AE7EEF3E03197F1F710
:1002600000C00000C298E7EEF3E03197F1F700C05C
:1002700000002F5F3F4FEBCF379884B38F6384BB71
:1002800087B3876087BB88B3887F88BB8AB3807E4B
:100290008ABB8BB38F618BBB089529B330E0082EE6
:1002A00002C0359527950A94E2F720FF02C080E04E
:1002B00008952FE738E391E0215030409040E1F776
:1002C00000C0000029B330E0082E02C03595279504
:1002D0000A94E2F720FDEBCF21E030E002C0220FCC
:1002E000331F8A95E2F789B390E082239323892B09
:1002F000D1F38FE39CE90197F1F700C0000081E0A2
:10030000089581E00E94410084E80E94410089E94B
:1003100090E00E94CF0081EC0E94410081EA90E0D1
:100320000C94CF00CF93DF93EC0181E00E94410059
:1003300080E80E94410080EB90E00E94CF0080ECBA
:100340000E94410023E12C9FC0012D9F900D11249C
:10035000805A9F4FDF91CF910C94CF000F931F9342
:10036000CF93DF938C0181E00E94410080E80E94DE
:10037000410083E1809FE001819FD00D1124C05A8C
:10038000DF4FCE010E94CF0080EC0E94410080EC44
:1003900090E00E94CF008D859E85DF91CF911F91C7
:1003A0000F910C94DB00CF93DF93EC0180EC0E9463
:1003B000410087EC90E00E94CF0080EC0E94410059
:1003C00080EC90E00E94CF0083E18C9FF0018D9F34
:1003D000F00D1124E05AFF4F85859685DF91CF916E
:1003E0000C94DB000E943C010E949D00C09A0E9478
:1003F0008101F12CE12CD0E0C0E010E000E083E1CD
:10040000D82E01301105F9F058F00230110509F429
:1004100057C08FE19EE40197F1F700C00000F1CFD3
:1004200080E00E944D018823A1F384E690E00E94C1
:100430002501C19A90E080E00E949201D0E0C0E0E6
:1004400001E010E0E6CF81E00E944D01882371F0C9
:1004500082E390E00E942501209729F02197CE01A8
:100460000E949201D6CFC2E0D0E0F9CF82E00E9494
:100470004D01882361F082E390E00E942501C230A3
:10048000D10514F42196EBCFD0E0C0E0E8CF83E0B3
:100490000E944D01882309F4BCCF84E690E00E94BD
:1004A0002501DC9EF001DD9EF00D1124E05AFF4F86
:1004B000E584F684CE010E94AE0102E010E0A9CFEF
:1004C00081E00E944D018823C9F0DC9EF001DD9E91
:1004D000F00D1124E05AFF4F8585968521893289D8
:1004E0008217930704F50196968785878EE190E041
:1004F0000E942501CE010E94D3018BCF82E00E9491
:100500004D018823A9F0DC9EF001DD9EF00D112441
:10051000E05AFF4F8585968527853089281739074A
:1005200014F40197E1CF80E590E00E94250171CF9E
:1005300084E00E944D01882311F181E00E94410076
:1005400080E80E94410088ED90E00E94CF0080EC9E
:100550000E94410082EE90E00E94CF008AEF90E07E
:100560000E9425012FEF89E698E1215080409040BC
:10057000E1F700C00000CE010E94920161CF80E04F
:100580000E944D01882309F444CFDC9EF001DD9EDA
:10059000F00D1124E05AFF4FF686E5868CE390E0DB
:1005A0000E942501E8CFAA1BBB1B51E107C0AA1F6F
:1005B000BB1FA617B70710F0A61BB70B881F991F04
:1005C0005A95A9F780959095BC01CD010895F894AE
:0205D000FFCF5B
:1005D200312E2054656D7020536574200018001070
:1005E200001E00322E2048756D6964205365740028
:1005F200370014005A00332E204C696D6974205361
:100602006574000A000000640057454C434F4D4595
:10061200005072657373204D656E75204B657900CD
:100622002D2D2D4D41494E204D454E552D2D2D0040
:1006320056616C75653A0020202020202020202061
:100642002020202020202000536176696E672E2E04
:0E0652002E0056616C7565205361766564005C
:00000001FF
